:020000040800F2
:1000000000800120DD020008E5020008E702000888
:10001000E9020008EB020008ED0200080000000001
:10002000000000000000000000000000EF020008D7
:10003000F102000800000000F3020008F5020008C9
:10004000F7020008F7020008F7020008F7020008AC
:10005000F7020008F7020008F7020008F70200089C
:10006000F7020008F7020008F7020008F70200088C
:10007000F7020008F7020008F7020008F70200087C
:10008000F7020008F7020008F7020008000000006D
:10009000000000000000000000000000F70200085F
:1000A000F7020008F7020008F7020008F70200084C
:1000B000F7020008F7020008F7020008F70200083C
:1000C000F7020008F7020008F7020008F70200082C
:1000D000F7020008F7020008F7020008000000001D
:1000E000F7020008F7020008F7020008000000000D
:1000F000000000000000000000000000F7020008FF
:1001000000000000F7020008F7020008F7020008EC
:1001100000000000000000000000000000000000DF
:10012000F7020008F7020008F7020008F7020008CB
:10013000F7020008000000000000000000000000BE
:10014000000000000000000000000000F7020008AE
:10015000F7020008F7020008F7020008F70200089B
:10016000F7020008F702000800000000000000008D
:10017000000000000000000000000000000000007F
:1001800000000000F702000800000000000000006E
:10019000F7020008DFF818D000F090FC00F0B0F88B
:1001A00000F0EAF9004800475D0F000800F0ADFAE2
:1001B000008001202DED088B82B053E0384802F01A
:1001C0001BFBF0EE409A9FED370ADFED370A00EE99
:1001D000E90AF0EE408A354CB0EE688AB0EE480A83
:1001E000204603F069FC00BF314802F005FBB0EE89
:1001F000408A204602F07FFA294802F0FDFA10EE0C
:10020000104A204600F0DFF941EC1A0B284802F0B2
:10021000F3FA10EE104A204600F0D5F941EC1B0B22
:100220008DED00AB53EC1B2B22A1284802F0A3FA62
:100230009FED270AB0EE408A0CE01C4CB0EE489AC5
:10024000B0EE490A204602F056FA00BF38EE280AFE
:10025000B0EE408AB7EE000AB4EEC08AF1EE10FAB2
:10026000EBD300BFAAE770B5002303220221174891
:100270005C3802F04FFA0446164A174900F08CF930
:100280000021074802F0BEFA0121094802F0BAFA3B
:10029000064C06252946204603F094FB00BF70BD9E
:1002A00094010020CDCC4C3BA69B443B5402002043
:1002B0009C010020566F6C756D652025662C2050C2
:1002C000697463683A2025660D0A00003C0200202C
:1002D0000000000000000008392700080648804799
:1002E00006480047FEE7FEE7FEE7FEE7FEE7FEE71B
:1002F000FEE7FEE7FEE7FEE7892200089501000819
:10030000042104A003F06CF8034908600349086065
:10031000FFF746FF3A747400140400200004002024
:1003200038B505468DF800000C4608680023012208
:10033000694603F0DBF810B14FF0FF3038BDE068DC
:10034000401CE060284638BD10B5431A934209D2DC
:100350008318881803E010F8011D03F8011D521ED0
:10036000F9D210BD40EA01039B0703D009E008C998
:10037000121F08C0042AFAD203E011F8013B00F86A
:10038000013B521EF9D210BDD2B201E000F8012BA0
:10039000491EFBD270470022F6E710B513460A4605
:1003A00004461946FFF7F0FF204610BD421C10F826
:1003B000011B0029FBD1801A704710B5002200E014
:1003C000521C835C8C5CA34201D1002BF8D1D8B2C3
:1003D000E1B2401A10BD30B505460020034600E0EA
:1003E0005B1C934205D2EC5CC85C201A01D1002C46
:1003F000F6D130BD0FB400B58DB010A909900B90A7
:1004000000914FF0FF300A9000200C9005480690B4
:10041000054807906A4609A80F9900F043F90DB006
:100420005DF814FBC1060008DF0600082DE9FF5F38
:100430001D464FF0FF3BD5E9014691465F464FF020
:100440000008A9697F1C01988847296A8246884765
:100450000028F6D1BAF1FF3F0CD024F4C064002E7E
:1004600019DD600614D5BAF12B0F09D0BAF12D0FA2
:100470000ED103E0584604B0BDE8F09F44F4806418
:10048000A9697F1C01988847761E8246002E02DDEE
:10049000BAF1300F03D0B9F1000F26D032E0A969CC
:1004A000761E44F400747F1C019888478246002E13
:1004B00005DDBAF1780F06D0BAF1580F03D0B9F1C3
:1004C000000F10D01EE0B9F1000F02D0B9F1100FEB
:1004D00018D1A969761E24F400747F1C01988847FE
:1004E0008246102002E0082000E00A20814609E050
:1004F00008FB0908A969761E44F400747F1C019862
:1005000088478246002E05DD4946504600F0B5F882
:100510000028EDDAE96901988847A00502D46FF058
:100520000100A8E7E00725D1600613D5600502D5D4
:10053000C8F1000000E0404629680A1D2A600968E9
:10054000220501D5087015E0220701D5088011E0C9
:1005500008600FE02868011D29600068210502D5A8
:1005600080F8008006E0210702D5A0F8008001E0B5
:10057000C0F8008038467EE770B5054C054D03E0B5
:10058000206820448047241DAC42F9D170BD000092
:10059000E0440008E44400082DE9F0410746154610
:1005A0000E46102003F0C8F804000AD06760C4E9C2
:1005B000026500F0A5F80168216004600020BDE834
:1005C000F0810120FBE700F0004230F000400AD04B
:1005D000C10D01F56071C0F3160042EA0151C20875
:1005E00040071143704700200146704730B50B4665
:1005F000014600202022012409E021FA02F59D4253
:1006000005D303FA02F5491B04FA02F52844151E26
:10061000A2F10102F1DC30BD2DE9F05F05460020BA
:1006200092469B4688460646814640241BE0284663
:1006300041464746224600F062FA53465A46C01ADF
:10064000914110D311461846224600F049FA2D1A5E
:1006500067EB01084F4622460120002100F040FAD6
:1006600017EB00094E41201EA4F10104DFDC4846CF
:1006700031462A464346BDE8F09F3A2800D230383A
:1006800020F02002412A01D3A2F13700884201D391
:100690004FF0FF307047000002681144137801608A
:1006A00018467047D1600449516104491162002124
:1006B0001161114600F04ABA99060008430B000880
:1006C000426842B1016811F8013B23B1521EC0E9F2
:1006D0000012184670470121C160881E70474268A9
:1006E0005AB1C368016843B983688B4205D0491E7B
:1006F000521CC0E90012002070474FF0FF307047D5
:1007000000487047D401002070472DE9F0410646AB
:10071000FFF7F6FF8046454613E016B1E068B042A9
:100720000ED120682860D4E90101D8F8007088470C
:10073000204602F0D9FFD8F80000B842EBD100E023
:1007400025462C68002CE8D1BDE8F0812DE9FE4F4C
:10075000804681EA0300C00F0C46009021F0004162
:1007600023F00045B8EB0200A94105D240462146DE
:1007700090461C460B46024623F00040104347D0EB
:10078000270DC7F30A00C3F30A510290401A0190E3
:1007900040286BDAC3F3130040F4801B00989246A4
:1007A00020B10023D2EB030A63EB0B0B01985946EF
:1007B000C0F14002504600F093F906460D465046FF
:1007C0005946019A00F0ABF910EB08006141002492
:1007D00087EA115284EAE7731A4340D0009A62B361
:1007E000019A012A4FEA075215DC001B61EB020156
:1007F0004FF0004202EA0752CDE90042001C41F5E9
:10080000801132462B4600F047FB03B0BDE8F08F65
:1008100040462146F9E7001B61EB0201001C41F54F
:10082000801300185B412018A2F5001747EB030165
:1008300040EAD570B6196D4111E06D084FEA3606F1
:1008400045EAC0754FEA0752001B61EB0201001C2C
:1008500041F5801149084FEA3000001951413246F4
:100860002B4603B0BDE8F04F00F007BB0098012213
:1008700040000023D0EB020263EBE07300982146B6
:100880004FEAE074B8EB000061EB0401E9E783F0A4
:1008900000435BE781F0004158E72DE9FE4F81EA14
:1008A000030404F0004421F0004100944FF0000BD9
:1008B00023F0004350EA01045ED052EA03045BD007
:1008C000C3F30A54C1F30A552C44A4F2F33401943F
:1008D000A0FB0254C1F3130141F48011C3F31303CD
:1008E00043F4801301FB024400FB034E840A970A81
:1008F00044EA815447EA8357A4FB076802958D0AAE
:1009000005FB07854FEA932C04FB0C542705029D39
:100910004FEA065847EA1637B5EB08056EEB070CA9
:10092000870E920E47EA811742EA8312A7FB020163
:10093000B6EB0B0164EB00042B0D43EA0C335E189D
:1009400044EB1C50DA465146E7FB0201C5F31304A1
:100950004FEA0B3343EA14534FEA0432019C43EA53
:100960000603A4F10C040294009CCDE900B400F04D
:1009700093FA03B0BDE8F08F00200146F9E72DE9B6
:10098000F04D81EA030404F0004B21F000451446C9
:100990004FF0000A23F0004150EA050220D054EA4B
:1009A00001021DD0C5F30A570246C5F31303C1F374
:1009B0001300C1F30A5640F4801543F48013A7EBEB
:1009C0000608101BD64608F2FD3873EB050002D36B
:1009D00008F1010801E092185B41B8F1000F03DA59
:1009E00000200146BDE8F08D00204FF4801106463E
:1009F00084460EE0171B73EB050705D3121B63EB50
:100A0000050306434CEA010C49084FEA30009218EE
:100A10005B4150EA0107EDD152EA030012D082EAAD
:100A2000040083EA0501084305D0101BAB4106D240
:100A30000122002306E000224FF0004302E06FF0A5
:100A4000010253101AEB06004CEB085110EB0A00A0
:100A500041EB0B01BDE8F04D00F00FBAC1F30A52B3
:100A6000C1F3130140F2FF3341F480119A4202DADC
:100A700000200146704740F233439A42A2F23342CB
:100A800002DC524200F03BB800F02AB830B5041E38
:100A900071F1000404DB4FF00044404264EB0101BB
:100AA000141E73F1000405DB1C464FF00043524254
:100AB00063EB0403994208BF904230BD064C074DDA
:100AC00006E0E06840F0010394E80700984710341E
:100AD000AC42F6D3FFF762FBC0440008E0440008D4
:100AE000202A04DB203A00FA02F1002070479140EE
:100AF000C2F1200320FA03F3194390407047202AE3
:100B000004DB203A21FA02F00021704721FA02F3B7
:100B1000D040C2F120029140084319467047202A74
:100B200006DBCB17203A41FA02F043EAE07306E015
:100B300041FA02F3D040C2F1200291400843194625
:100B40007047C0B24FF4F05100F0F4B92DE9F34F03
:100B50008BB04FF0000801F10C000C464FF0010B78
:100B600046460DF1080A01906269012101989047FB
:100B7000051E2DD0252D2CD0216A8847C0B1626971
:100B8000012101989047216A88470028F7D1411E2A
:100B900062690198904700E0761CA1690B9888472C
:100BA000216A88470028F7D1E1690B988847DBE77D
:100BB000A1690B9888470746A84201D1761CD3E764
:100BC000E1690B9888477F1C02D1B8F1000F6FD004
:100BD00046E1002762693D463946019890472A2838
:100BE00004D162690121019890470125DFF88492C0
:100BF0006269012101989047A0F130010A290AD2C7
:100C00004F45E5DC07EB870100EB4107303FDFD4C0
:100C100045F01005ECE7E90601D46FF000476C28B9
:100C20000AD04C2814D0682815D06A280DD0742812
:100C30001CD07A281AD01DE06269012101989047E2
:100C40006C2802D045F0040514E045F002050DE0E3
:100C500045F020050AE06269012101989047682863
:100C600002D045F0080505E045F400656269012100
:100C700001989047C4E9015765283DD019DC5828F0
:100C80007AD00CDC452837D004DC252826D0412832
:100C900031D131E046282FD047282CD12CE05B28D9
:100CA00077D0612828D063287CD0642823D15AE0EB
:100CB000D0E06F2848D008DC66281DD067281BD0FC
:100CC000692821D06E2816D127E0702845D07328D6
:100CD00068D0752847D078280DD14DE0A1690B98D0
:100CE0008847054625283FF469AFE1690B98884796
:100CF0006D1C3FF46AAFB3E023466A466FF0010013
:100D00000B99AFF300809EE045F040006060A807BB
:100D100023464FF0000236D43EE0E8077FF447AFA9
:100D20002068011D21600068290501D506701BE7B8
:100D3000290701D5068017E7A90703D5F117C0E9F0
:100D4000006111E706600FE745F040006060A8070A
:100D500023464FF0080216D41EE040F60E0125EAA5
:100D60000100606016E045F040006060A80723467F
:100D70004FF00A0207D40FE045F040006060A8077A
:100D800008D5234610226FF001000B99AFF30080C5
:100D900059E007E0234610226FF001000B99FFF79E
:100DA00045FB50E04FF000094F464B46632802D008
:100DB0005B2806D040E0E80601D40120A0600127AE
:100DC0003AE062690121019890475E2805D14FF011
:100DD00001096269494601989047216939B90021A2
:100DE0000A46534643F82120491C0829FADBB0B3D0
:100DF000216969B9C11700EBD16253110AEB830174
:100E000022F01F02821A01200B68904003430B60FE
:100E100062690121019890475D28E8D1B9F1000F7E
:100E200009D00020514651F82020D24341F820201B
:100E3000401C0828F7DB02AB224600976FF0010048
:100E40000B99AFF3008000280CDA401C08D1BBF1ED
:100E5000000F05D04FF0FF300DB0BDE8F08FFFE779
:100E60004046F9E7E90701D108F1010806444FF0CF
:100E7000000B79E6CCCCCC0C704710B5141E73F186
:100E8000000408DA401C41F1000192185B411A434A
:100E900001D120F0010010BD2DE9F04D92469B4696
:100EA00011B1B1FA81F202E0B0FA80F2203290463C
:100EB000FFF716FE04460F4640EA0A0041EA0B011E
:100EC00053465A46084313D0114653EA010019D03D
:100ED000C8F140025046FFF712FE05460E46504646
:100EE00059464246FFF7FCFD084305D0012004E0C7
:100EF00020463946BDE8F08D0020054346EAE076FD
:100F00002C4337430A986305E40AA0EB080000224B
:100F1000FD0A44EA47540A3002D500200146E9E7B9
:100F2000010510196941DDE9084500196941BDE86D
:100F3000F04DA2E77F2801D9002208E0064A02EB23
:100F40005002C007127800D1120902F00F020120EE
:100F500090400840704700005843000810B502F068
:100F600052FC02F04FFCBDE81040FFF723B900210E
:100F700001F0BCBB10B490F83C20012A02BF022053
:100F800010BC7047012280F83C200A680723D0F883
:100F900000C0092A18D9DCF80C400A3A02EB4202D8
:100FA00003FA02F224EA0202CCF80C200B788A68D9
:100FB0000A3B03EB430302FA03F30268D2F80CC0C6
:100FC00043EA0C03D36015E0DCF8104002EB420268
:100FD00003FA02F224EA0202CCF810200B788A68A5
:100FE00003EB430302FA03F30268D2F810C043EAAA
:100FF0000C0313614A681F23072A1AD2D0F800C0D5
:10100000DCF83440521E02EB820203FA02F224EAB8
:101010000202CCF834200B790A685B1E03EB8303D1
:1010200002FA03F30268D2F834C043EA0C035363B4
:1010300034E0D0F800C00D2A18D2DCF83040D21FBE
:1010400002EB820203FA02F224EA0202CCF8302018
:101050000B790A68DB1F03EB830302FA03F30268D0
:10106000D2F830C043EA0C03136317E0DCF82C40DD
:101070000D3A02EB820203FA02F224EA0202CCF8F1
:101080002C200B790A680D3B03EB830302FA03F370
:101090000268D2F82CC043EA0C03D362104A0368FA
:1010A000934204BF0B68122B05D1D2F8043343F4EA
:1010B0008003C2F80433036893420AD109681029F7
:1010C00018BF112905D1D2F8041341F40001C2F868
:1010D0000413002180F83C1010BC08467047000043
:1010E000002001400068C06C70470000002804BF69
:1010F0000120704710B5044690F83D00002804BF59
:10110000204600F093F8022084F83D00444801682E
:1011100021F4403101600168626811430160206878
:10112000416821F48071416020684168226941EA88
:10113000022141602068416821F0407141602068CF
:101140004168A268114341602068816821F4006110
:10115000816020688168E26811438160206881684D
:1011600021F07061816020688168226B1143816089
:101170002068816821F04051816020688168E26ABE
:10118000114381602068816821F00201816020683C
:101190008168A26941EA42018160606A0028206892
:1011A000416808BF21F400610ED041F40061416044
:1011B0002068416821F46041416020684168194B12
:1011C000A26A03EB4232114341602068C16A21F4F4
:1011D0007001C1622068C16A228C134B03EB02527A
:1011E0001143C1622068816821F400718160206828
:1011F0008168E26941EA422181602068816821F4C6
:101200008061816020688168626941EA8221816031
:1012100000202064012184F83D1084F83C0010BDBA
:101220000423014000E0FFFF0000F0FF704770B5AD
:101230000D46044600F086F946192068006810F053
:10124000020F12D1681C0BD000F07CF9B04207D31A
:10125000032084F83D00002084F83C00032070BD8A
:101260002068006810F0020FECD094F83D002528AB
:101270000CBF3520152084F83D00002070BD000013
:1012800090F83C200021012A04BF0220704701226F
:1012900080F83C2090F83D20222A0CBF32221222F6
:1012A00080F83D200268936813F0010F09D193681C
:1012B00043F00103936000BF491C89B2B1F5077F79
:1012C000F9D90D4AD2F8041311F01F0F06D00168A6
:1012D000914204BFC26A002A05D008E0C16A002911
:1012E00008BF016803D18A6842F080428A60002109
:1012F00080F83C1008467047002001402DE9F04F6F
:1013000000228A4EDFF828E201274FF0030A4FF04F
:101310000F0800BF0B6807FA02F42340A34240F015
:10132000FF80D1F804C0BCF1020F18BFBCF1120F4E
:1013300015D14FEAD20C00EB8C05D5F820904FEA7E
:10134000427C4FEADC6C08FA0CFB29EA0B09D1F865
:1013500010B00BFA0CFC4CEA090CC5F820C0D0F810
:1013600000904FEA420C91F804B00AFA0CF50BF029
:10137000030B29EA05090BFA0CFB4BEA0909C0F833
:101380000090D1F80490B9F1010F18BFB9F1020F24
:1013900005D0B9F1110F18BFB9F1120F18D1D0F85B
:1013A0000890D1F80CB029EA05090BFA0CFB4BEABE
:1013B0000909C0F80890D0F8049029EA040491F8CB
:1013C0000490C9F3001909FA02F949EA04044460D7
:1013D000C468AC438D6805FA0CFC4CEA040CC0F8F8
:1013E0000CC0D1F804C01CF0805F7CD0D6F800C0DF
:1013F0004CF4804CC6F800C022F0030CF444DCF836
:1014000000509407240F08FA04F925EA0905A0F111
:101410008049B9F5003948D0A0F18049B9F50139C2
:1014200008BF4FF0010940D0A0F18049B9F5023959
:1014300008BF4FF0020938D0A0F18049B9F503394F
:1014400008BF4FF0030930D0A0F18049B9F5043945
:1014500008BF4FF0040928D0A0F18049B9F505393B
:1014600008BF4FF0050920D0A0F18049B9F5063931
:1014700008BF4FF0060918D0A0F18049B9F5073927
:1014800008BF4FF0070910D0A0F18049B9F508391D
:1014900008BF4FF0080908D0A0F18049B9F5093913
:1014A0000CBF4FF009094FF00A0909FA04F42C4364
:1014B000CCF800401F4CD4F800C04D682CEA030C57
:1014C00015F4803F18BF4CEA030CC4F800C01A4C56
:1014D000D4F800C04D682CEA030C15F4003F18BF87
:1014E0004CEA030C00E01BE0C4F800C0134CD4F835
:1014F00000C04D682CEA030C15F4801F18BF4CEA9D
:10150000030CC4F800C00E4CD4F800C04D682CEA9F
:10151000030C15F4001F18BF4CEA030CC4F800C0FC
:10152000521C102AFFF4F6AEBDE8F08F443802409A
:1015300008380140003C0140043C0140083C0140A7
:101540000C3C01400148006870470000AC010020DD
:1015500002480168491C016070470000AC0100208E
:101560000B4810B5016841F400710160016841F455
:1015700080610160016841F480710160032000F026
:101580005FF80F2000F006F800F058F8002010BDBA
:10159000003C0240204810B5016841F0080101609C
:1015A0001E48016841F008010160016821F008014E
:1015B00001601C4C1A481D4920604FF0FF30E0606C
:1015C00019480068B0FBF1F0401E60600020206107
:1015D000A0606061204600F0C1FB1549322000F098
:1015E00063FD14494FF4802008600021204600F07C
:1015F000CFFB0421204600F0CBFB2068416A0E4A55
:10160000116001F57A7181632068C16841F00401BD
:10161000C160002010BD0000403802402038024068
:10162000000C004064020020B001002040420F0086
:10163000ED3D000804E100E0A80100207047000033
:10164000074900F007000A684FF6FF031A4042EA14
:10165000002040F0FD7040F080600860704700009E
:101660000CED00E02DE9F047DFF8EC8104468946F7
:10167000D8F800007A4E00F00F01784809F0FF0A10
:1016800041F28837494562D288F800A0D8F80010A6
:1016900001F00F0149457DD1217811F0020F05D0ED
:1016A0003168A26821F0F00111433160217811F016
:1016B000010F4BD06168012922D00068022924D093
:1016C00010F0020F66D0306820F00300084330604D
:1016D000FFF738FF0546606801281AD002283068F5
:1016E00000F00C0025D0002830D000BFFFF72AFF03
:1016F000401BB8425BD8306810F00C0FF6D18FE079
:10170000006810F4003FDED187E010F0007FDAD1EE
:1017100083E0306800F00C00042817D0FFF712FFB8
:10172000401BB84243D8306800F00C000428F5D1C3
:1017300076E0082874D000BFFFF704FF401BB842D2
:1017400035D8306800F00C000828F5D168E0217821
:1017500011F0020F05D03168A26821F0F0011143A9
:101760003160217811F0010F4FD06168012921D03B
:101770000068022923D010F0020F4ED0306820F00C
:10178000030008433060FFF7DDFE0546606801286E
:1017900019D000E041E00228306800F00C0022D0AF
:1017A00000B300BFFFF7CEFE401BB84229D903208B
:1017B000BDE8F087006810F4003FDFD12DE010F0A5
:1017C000007FDBD129E0306800F00C0004281CD039
:1017D000FFF7B8FE401BB842E9D8306800F00C00B3
:1017E0000428F5D111E008280FD000BFFFF7AAFEAA
:1017F000401BB842DBD8306800F00C000828F5D157
:1018000003E0306810F00C0FCCD188F800A0D8F8B5
:10181000000000F00F00484502D00120BDE8F0872D
:10182000207810F0040F05D03068E16820F4E05013
:1018300008433060207810F0080F06D03068216926
:1018400020F4604040EAC10030600F20FFF7A2FEA4
:101850000020BDE8F0870000003C02400038024054
:101860000838024030B42A4C206810F00C01294896
:101870003ED04FEA600C042908BF604638D00829E2
:1018800036D1254A116801F03F0311684FF48005F5
:1018900095FAA5F501F48001B5FA85F531FA05F55B
:1018A00047F6C0710BD0BCFBF3F013680B4091FA04
:1018B000A1F1B1FA81F123FA01F148430AE0B0FB4A
:1018C000F3F013680B4091FAA1F1B1FA81F123FA18
:1018D00001F1484311684FF4403292FAA2F201F448
:1018E0004031B2FA82F2D140491C4900B0FBF1F01C
:1018F0002168F02292FAA2F201F0F001B2FA82F22B
:10190000D140064A515CC8400549086030BC704768
:10191000083802400024F400043802400C3F00085C
:10192000B001002000B5FFF79DFF074909684FF49B
:10193000E05292FAA2F201F4E051B2FA82F2D140FE
:10194000024A515CC84000BD083802400C3F000804
:1019500000B5FFF787FF074909684FF4604292FA24
:10196000A2F201F46041B2FA82F2D140024A515C23
:10197000C84000BD083802400C3F00082DE9F05F68
:101980000446E34F0078A7F1040810F0010F4FF070
:101990000009A8F1040545D0386800F00C000428BF
:1019A00009D0386800F00C0008280DD1D8F80000E4
:1019B00010F4800F08D0286810F4003F1CBF606846
:1019C00001282FD000F0A1B9DFF848A38AF80090D1
:1019D000FFF7B8FD0646286810F4003F0AD000BFA4
:1019E000FFF7B0FD801B642800F21F81286810F407
:1019F000003FF5D120798AF800006068012821D0E5
:101A0000FFF7A0FD0646286810F4003F0AD000BF8B
:101A1000FFF798FD801B642800F20781286810F406
:101A2000003FF5D12078DFF8F0A210F0020F5ED071
:101A3000386810F00C0F29D0386800F00C00082826
:101A400012D016E0FFF77EFD0646286810F4003F2E
:101A5000E8D100BFFFF776FD801B64287DD8286899
:101A600010F4003FF6D0DDE7D8F8000010F4800F46
:101A70000CD0E06848B30120CAF80000FFF762FD0F
:101A80000646286810F0020F09D011E0286810F00F
:101A9000020F1CBFE068012829D000F036B9FFF71B
:101AA00051FD801B642858D8286810F0020FF6D02A
:101AB0002868F82220F0F80192FAA2F22069B2FA1E
:101AC00082F290400843286011E0CAF80090FFF7C6
:101AD00039FD0646286810F0020F08D0FFF732FDE6
:101AE000801B642839D8286810F0020FF6D12078BE
:101AF00010F0080F2AD08948894E616999B10121F7
:101B00000160FFF71FFD8346306810F0020F1DD102
:101B1000FFF718FDA0EB0B0064281ED8306810F00A
:101B2000020FF5D012E0C0F80090FFF70BFD8346DE
:101B3000306810F0020F09D0FFF704FDA0EB0B0096
:101B4000642872D8306810F0020FF5D1207810F0B8
:101B5000040F52D07348016800E066E041F0805104
:101B60000160DFF8C4B1DBF8000040F48070CBF80E
:101B70000000FFF7E7FC0646DBF8000010F4807F6A
:101B80000AD100BFFFF7DEFC801B64284DD8DBF8CC
:101B9000000010F4807FF5D0DFF890B18BF8009052
:101BA000FFF7D0FC0646DBF8000010F0020F0AD069
:101BB000FFF7C8FC801BB0F5FA7F36D8DBF80000D1
:101BC00010F0020FF4D1207A8BF80000A0680128F1
:101BD0002ED0FFF7B7FC0646DBF8000010F0020F2E
:101BE0000BD000BFFFF7AEFC801BB0F5FA7F1CD80E
:101BF000DBF8000010F0020FF4D1A069F0B33968EF
:101C000001F00C01082977D00228CAF8609023D08F
:101C1000FFF798FC0446286810F0007F72D000BFE0
:101C2000FFF790FC001B642868D90320BDE8F09FF3
:101C3000FFF788FC0646DBF8000010F0020FDCD14D
:101C4000FFF780FC801BB0F5FA7FEED8DBF80000D0
:101C500010F0020FF4D0D0E7FFF774FC06462868B6
:101C600010F0007F09D000BFFFF76CFC801B6428D8
:101C7000DBD8286810F0007FF6D100E042E0D4E91C
:101C8000070141EA000347F6C07191FAA1F1606AC9
:101C9000B1FA81F18840A16A4FF0FF3202EB5102A4
:101CA0004FF4403191FAA1F1B1FA81F102FA01F158
:101CB00008434FF0706292FAA2F2E16AB2FA82F23D
:101CC00018439140084340F00050C8F8000001203C
:101CD000CAF86000FFF736FC0446286810F0007F61
:101CE00010D100BFFFF72EFC001B64289DD8286888
:101CF00010F0007FF6D005E007E0FFE7286810F05D
:101D0000007F8DD10020BDE8F09F0120BDE8F09F4D
:101D1000083802400238024000004742800E474225
:101D20007438024040380240007000407038024071
:101D30000268042303FA01F1136A8B431362136AE6
:101D40001943116201684A6C42F400424A64006817
:101D5000016841F00101016000207047002804BFC4
:101D60000120704710B5044690F83900002804BFE0
:101D7000204600F00CF8022084F83900211D20686C
:101D800000F002FB012084F83900002010BD7047EC
:101D90000268012303FA01F1136A8B431362136A89
:101DA000194311620168A1F18042B2F5803203D17A
:101DB0004A6C42F400424A640068016841F0010143
:101DC000016000207047000090F83830012B04BFFC
:101DD00002207047F0B4012480F83840022380F8D4
:101DE00039307D4B3AB1042A3ED0082A7DD00C2AE6
:101DF0007AD000F0E8B80268D2F820C02CF0010CCC
:101E0000C2F820C0D2F820C0556896690F6826F045
:101E100073063E438F682CF0020C47EA0C0C9A4282
:101E20000DD12CF00803D1F80CC04CEA030323F0C9
:101E3000040C25F440734D692B438D691D43556097
:101E400096614B685363C2F820C00268936943F0FF
:101E5000080393610268936923F0040393610268A5
:101E60009369096919433CE00268D2F820C02CF05C
:101E7000100CC2F820C0156AD2F804C096690F6829
:101E800026F4E64646EA07268F6825F0200545EA4F
:101E900007159A4210D125F08003CD6843EA051357
:101EA00023F040052CF44063D1F814C043EA8C03BE
:101EB000D1F818C043EA8C0CC2F804C096614B6894
:101EC000936315620268936943F400639361026847
:101ED000936923F48063936102689369096943EA13
:101EE000012191616FE000E03AE00268D2F820C081
:101EF0002CF4807CC2F820C0D2F820C05568D66986
:101F00000F6826F073063E438F682CF4007C4CEA81
:101F1000072C9A420FD12CF40063D1F80CC043EA8D
:101F20000C2323F4806C25F440534D6943EA0513D8
:101F30008D6943EA05155560D6614B68D363C2F8D5
:101F400020C00268D36943F00803D3610268D369F3
:101F500023F00403D3610268D3690969194331E0AE
:101F60000268D2F820C02CF4805CC2F820C0166A47
:101F7000D2F804C0D5690F6825F4E64545EA07257F
:101F80008F6826F4005646EA07369A4205D12CF4AB
:101F90008043D1F814C043EA8C1CC2F804C0D56158
:101FA0004B68136416620268D36943F40063D3611B
:101FB0000268D36923F48063D3610268D369096935
:101FC00043EA0121D16180F83940002180F83810BE
:101FD000F0BC08467047000000000140002804BF24
:101FE0000120704710B5044690F83900002804BF5E
:101FF000204600F00CF8022084F83900211D2068EA
:1020000000F0C2F9012084F83900002010BD7047AB
:102010000268012303FA01F1136A8B431362136A06
:10202000194311620168A1F18042B2F5803203D1F7
:102030004A6C42F400424A640068016841F00101C0
:10204000016000207047002804BF0120704710B5D0
:10205000044690F83900002804BF204600F022F81A
:10206000022084F839002068C16821F40051C16061
:10207000204600F0D3F92068016921F49041016104
:102080002068416921F02A0141612068C16841F45A
:102090000051C160002084F83A00012084F8390022
:1020A000002010BD704700002DE9F041184D0E468C
:1020B00007462C682868B0F1006F23D12146C1F192
:1020C0000050AC068210002AC4BF6522B2EBA00FFC
:1020D00005DC4FF4CA722046FEF736F90FE00868B7
:1020E0002060012004EB800351F8202044F82020D8
:1020F00001EB8002801C52685A606528F2D34FF0D1
:102100000050286004EB87000664BDE8F081000001
:1021100008ED00E01C4910B50A6892B042F0805208
:102120000A601A490A6822F4404242F400420A60F6
:102130000121009100280EBF019105200190022489
:102140006005CDE90640082008904FF4A87009907A
:1021500004200A9007200B906846FFF70FFC80B917
:102160000F20CDE90C040020E102CDE90E01109012
:1021700002210CA8FFF776FA002802BF012012B056
:1021800010BD002012B010BD403802400070004069
:1021900010B500241449082820D2DFE800F0040A12
:1021A0000F151F1F1F1A114C086840F0010008602E
:1021B00017E00F4C086840F0020003E00D4C08687F
:1021C00040F0040008600CE00B4C086840F0080088
:1021D000F8E70A4C086840F08000F3E7084801F08F
:1021E00067FA204610BD000030380240000002406F
:1021F0000004024000080240000C0240001C0240A3
:10220000DC420008DFF86CC030B4DCF800001A4B88
:1022100010F00C01194806D05C10042908BF0460B6
:1022200002D008290CD00360DCF80010144AC1F376
:102230000311515C026822FA01F1016030BC704761
:1022400010490A68C2F380550A68002D02F03F0267
:1022500014BFB4FBF2F2B3FBF2F20B680968C3F3EC
:1022600088135A43C1F30141491C4900B2FBF1F103
:102270000160D9E7083802400024F400B0010020D2
:102280001C3F00080438024030B5344891B0016862
:1022900041F4700101603248016841F001010160C0
:1022A000304900240C60016821F4102121F0807174
:1022B0000160021D2C491160016821F48021016038
:1022C0002A4804602A49500608602B4929480860BA
:1022D000FFF746F90120FFF71DFF002832D1FFF775
:1022E00019FF00282ED12548016841F08051016076
:1022F0002348016821F4404141F40041016003207A
:10230000009001200390019410200225069504906E
:10231000CDE907404FF4A870099004200A900720E7
:102320000B906846FFF72AFB58B90F20CDE90C0542
:10233000E802CDE90E4002210CA81094FFF792F9B3
:1023400000B1FEE70F48016841F008010160016833
:1023500021F00801016011B030BD000088ED00E0FF
:102360000038024008380240103000240C38024087
:1023700008ED00E00024F400B001002040380240E5
:10238000007000402038024070B402681F4BDFF834
:1023900080C0204C204D984218BFB0F1804F04D02F
:1023A00060451CBFA042A84203D14E6822F07002D3
:1023B0003243984218BFB0F1804F14D0604518BF27
:1023C000A04210D0A8421CBFA0F1804CBCF5A03C9C
:1023D00009D0A0F1804CBCF5A23C1CBFA0F1804C00
:1023E000BCF5A43C05D1D1F80CC022F440724CEAF3
:1023F000020202608A68C2620A688262984204BF6E
:10240000096901630121416170BC7047000001400E
:102410000004004000080040000C00402DE9F0419D
:10242000044600680169E26821F4405111430161EA
:102430002068C1682369A268D4F81CC01A43636984
:1024400021F4037143EA0C0321F414411A431143AC
:10245000C16020684169A26921F440711143416162
:10246000E2693226B2F5004F6F487049704D22681C
:1024700037D08A4218BF82427DD1FFF769FA00EB5C
:10248000C00101EB001061688900B0FBF1F0A5FB11
:1024900000104709FFF75CFA00EBC00101EB0010E8
:1024A00061688900B0FBF1F8FFF752FA00EBC00158
:1024B00001EB001061688900B0FBF1F0A5FB001092
:1024C00040096FF01801484308EB800006EB00104C
:1024D000A5FB00102168400967F31F108860BDE864
:1024E000F0818A4218BF824233D1FFF731FA00EB04
:1024F000C00101EB001061684900B0FBF1F0A5FBE1
:1025000000104709FFF724FA00EBC00101EB0010AF
:1025100061684900B0FBF1F8FFF71AFA00EBC0015F
:1025200001EB001061684900B0FBF1F0A5FB001061
:1025300040096FF01801484308EB800006EB0010DB
:10254000A5FB00102168400967F31F108860BDE8F3
:10255000F081FFF7E7F900EBC00101EB00106168C3
:102560004900B0FBF1F0A5FB00104709FFF7DAF9CD
:1025700000EBC00100E022E001EB001061684900BF
:10258000B0FBF1F8FFF7CEF900EBC00101EB001052
:1025900061684900B0FBF1F0A5FB001040096FF045
:1025A0001801484308EB800006EB0010A5FB001063
:1025B0002168400967F31F108860BDE8F081FFF7CC
:1025C000B1F900EBC00101EB001061688900B0FBBC
:1025D000F1F0A5FB00104709FFF7A4F900EBC001DB
:1025E00001EB001061688900B0FBF1F8FFF79AF980
:1025F00000EBC00101EB001061688900B0FBF1F055
:10260000A5FB001040096FF01801484308EB80005B
:1026100006EB0010A5FB00102168400967F31F10AE
:102620008860BDE8F0810000001401400010014006
:102630001F85EB5110B4094901600021084B10229D
:102640008C4600BF53F82140844208BF43F821C0A4
:10265000491C521EF6D110BC70470000A043000870
:10266000A002002010B50C46001D01F0ADFB204675
:1026700010BDC1EBC10100EB8100203000F02AB891
:1026800070B50E4610490160002141608160C16053
:10269000016141618161C161154602231C220B4920
:1026A000203000F09FF9A0F120044FF41650A065EF
:1026B0002A463146201D01F0CBFA22460449201D4E
:1026C00001F076FB204670BDCC4300086F0F000878
:1026D00073260008016801B108474368002B08BF52
:1026E000704700F1080182691846104700224260D5
:1026F00082610160704710B52DED028B0446B0EE8B
:10270000408AB0EE480A204601F036FABDEC028B52
:1027100010BD000010B51C46FFF7B2FF21465C302B
:1027200000F038F8034940F85C1D4C31016634393B
:10273000C16510BDDC43000810B55C3000F04CF8FA
:102740005C3810BD00207047002070472DE9F04133
:102750008D180F4606460C46A94209D0306814F879
:10276000011B426A30469047401C18BFAC42F5D16D
:10277000E01BBDE8F0810FB470B5044606AD4069BA
:1027800000F063F92A466069059900F01FF970BCF2
:102790005DF814FB10B584B000F08AF804460B48CD
:1027A00020603430606000206061224608A16846E5
:1027B00000F0F8F807A1684600F053F900216061C5
:1027C000AFF3008004B0204610BD0000384400087C
:1027D0003A257000772B000010B5044605482060AC
:1027E00034306060606900F021F92046BDE8104097
:1027F00000F070B83844000810B50446204600F0D8
:10280000EFFE10BD70B504460D462946204600F087
:102810009DFE204670BD007B7047000070B50646E7
:102820000B480D46046884B1A06858B12A46314669
:10283000FDF7D1FD30B9A068FDF7B8FDA84201D180
:10284000204670BD6468002CEED1002070BD0000F1
:10285000D0010020064B03600023C0E90131027360
:10286000002908BF704703490A6842600860704742
:102870007C440008D00100200B49016081680029D8
:1028800008BF7047094A1168814202BF4168116060
:1028900070474A68824203D0114652688242FBD197
:1028A00042684A60704700007C440008D001002064
:1028B00010B5064A40F8042B0022FFF7CBFF04496D
:1028C00040F8041D2C31416010BD0000A0430008F9
:1028D0008C44000810B5001DFFF7CEFFBDE8104086
:1028E000001FFFF7A7BE10B50446406828B1FFF7E8
:1028F00092FF012804BF606810BD002010BD10B514
:102900000446406810B1FFF786FF08B1002010BDF3
:102910006068002818BF001F10BD4068002818BF5D
:102920000120704710B54068002808BF10BDFFF7B0
:1029300072FF00280CBF0120002010BD0068704706
:1029400010B5044600202060606008782F280DD163
:10295000487858B14B1C00212360226810782F283A
:1029600006D038B1491C501C2060F6E7204610BD47
:10297000501C20601846FFF751FF6060204610BDD4
:102980005C38FFF76FBE00000FB4024610B504A913
:10299000034B039800F072F910BC5DF814FB0000C3
:1029A000210300080FB4084B10B504A902AA03982C
:1029B00000F064F9044602A9002000F0F6FC20466D
:1029C00010BC5DF814FB0000AB33000830B41446B3
:1029D0000D4602462146284630BC014B00F04EB958
:1029E000210300082DE9F0411C4617460E008046E1
:1029F00007D0054602E02846B0473D442046641E05
:102A0000F9D24046BDE8F0810020FDF77DBE02E02E
:102A100008C8121F08C1002AFAD170477047002069
:102A200001E001C1121F002AFBD1704710B5044616
:102A3000006800F0BFFC002802DA4FF0FF3010BD44
:102A4000204600F051FE002010BD10B5C16800689E
:102A500000F038FD002802DA4FF0FF3010BD0020F2
:102A600010BD70B506460D46142000F065FE04004A
:102A70000AD01421FDF78FFC22462946304600F08B
:102A8000CDF8050002D004E0002070BD204600F023
:102A90002BFE284670BD00002DE9FF5F82B00021AB
:102AA000DDE90430020DDDF840B0034318D044F6F0
:102AB0001050A2F2FF3242431514119801281FD082
:102AC000A5EB0B00401C5FEA000A4FF000064E4FDA
:102AD000DFF83891B046504615D5CAF1000413E02E
:102AE000119801244AA3012801D16FEA0B01029831
:102AF000119AC0E90031C0E9024206B0BDE8F09F7A
:102B0000CBF10000DFE704460021404A491842EBC0
:102B10000450CDE9001012E0E00707D032463B46F2
:102B200040464946FDF7B9FE8046894632463B4657
:102B300010461946FDF7B1FE06460F466410002CFC
:102B4000EAD1DDE90401DDE90023BAF1000F06DA7C
:102B5000FDF7A3FE42464B46FDF79FFE05E0FDF75D
:102B60000EFF42464B46FDF70AFF04460E46002282
:102B7000284BFDF78BFF03D84FF0FF30014607E0ED
:102B80000022254B20463146FDF7E0FDFDF766FFAC
:102B9000102409E0002C0ADB0A220023FDF73CFD8B
:102BA000039B30321A55641E50EA0102F2D1641CB4
:102BB000039AC4F111031444119A012A03D001228B
:102BC00008430DD10AE0084304D000204FF0110B58
:102BD000119072E7A3EB0B056D1E0DE05B4504DD64
:102BE0004FF0000205F1010504E003DA4FF00002A6
:102BF000A5F10105002AECD002981199C0E9023133
:102C0000C0E9004579E70000000014400000F03FF3
:102C1000300000000000F0430000E03F70B50646C1
:102C2000106815460C4608B100F0C4FB14F8010BFF
:102C3000612808D0722802D077281CD101E0002139
:102C40000EE004210CE008210AE0641C2B2802D0CD
:102C5000622810D102E041F0020101E041F00101DF
:102C600020780028F1D1304600F0BAFB411C02D098
:102C70002860284670BD002070BD00002DE9FF4F80
:102C800095B09B468946064600250FE2252877D158
:102C900000242746F84A0121059400E0044316F871
:102CA000013F203B01FA03F01042F7D130782A2887
:102CB00011D06FF02F033078A0F13002092A16D816
:102CC000059A44F0020402EB820203EB4202104434
:102CD000761C0590EFE759F8042B0592002A03DAD9
:102CE000504244F40054059044F00204761C3078BD
:102CF0002E2816D116F8010F44F004042A280DD00E
:102D00006FF02F023078A0F13003092B09D807EBC0
:102D1000870302EB4303C718761CF3E759F8047BDB
:102D2000761C30786C280FD006DC4C2817D0682829
:102D30000DD06A2814D104E0742810D07A280FD15D
:102D40000DE044F400140AE044F4801401E044F47B
:102D500040147278824202D104F58014761C761CED
:102D6000307866280BD013DC582877D009DC00288F
:102D700075D04528F6D04628F4D047281AD19DE1D1
:102D800018E0632835D0642879D0652812D195E100
:102D9000702873D008DC6728F1D069286FD06E28BE
:102DA0000DD06F2806D1B5E073282CD0752875D0CA
:102DB000782874D05A46179990476D1C75E1C4F372
:102DC0000250022809D003280DD0D9F80010042899
:102DD0000DD00D6009F1040967E1D9F80010EA1778
:102DE000C1E90052F6E7D9F800100D80F2E70D7046
:102DF000F0E719F8041B8DF8001000208DF8010091
:102E0000EA46012003E059F804AB4FF0FF306107B8
:102E10004FF0000102D40DE008F101018846B942EB
:102E20000FDA8045F8DB1AF808100029F4D108E021
:102E300008F1010188468142FADB1AF808100029DE
:102E4000F6D105985B46A0EB080721463846179A4D
:102E500000F094FA284400EB080507E04DE029E172
:102E60000DE01AF8010B5A4617999047B8F101087E
:102E7000F7D25B4621463846179A13E142E00A2210
:102E80000092C4F302524FF0000A022A08D059F807
:102E900004CB032A4FEAEC710AD00DE029E02AE0C6
:102EA00009F1070121F00702F2E802C1914609E0A9
:102EB0000FFA8CFC4FEAEC71042A03D14FFA8CFC18
:102EC0004FEAEC71002907DA0A460021DCF1000C18
:102ED00061EB02012D2202E0220504D52B228DF8A0
:102EE0000420012203E0E20701D02022F7E7904608
:102EF00059E00A2102E010220DE010214FF0000AF3
:102F000000910BE010224FF0000A44F0040408275F
:102F1000009203E008224FF0000A0092C4F302522C
:102F2000022A05D059F804CB0021032A08D009E071
:102F300009F1070121F00702F2E802C1914605E01C
:102F40001FFA8CFC042A01D10CF0FF0C4FF0000892
:102F5000220728D5702806D0009B83F0100353EA7F
:102F60000A0305D00EE040228DF80420012208E07B
:102F70005CEA010206D030228DF804208DF80500AD
:102F800002229046009B83F0080353EA0A030AD109
:102F90005CEA010201D1620705D530228DF80420D8
:102FA0004FF001087F1E582804D034A003900EA8CB
:102FB00002900DE036A0F9E753466046009AFDF70F
:102FC0002BFB84460398825C0298401E029002709C
:102FD0005CEA0100F0D1029806A9081A00F1200A63
:102FE000600702D524F4803400E00127574502DD54
:102FF000A7EB0A0000E0002000EB0A010090059812
:103000004144401A0590E00306D45B462146179AD6
:10301000059800F0B3F90544002706E001A85A46D8
:10302000C05D179990476D1C7F1C4745F6DBE00398
:103030000CD55B462146179A059800F09FF9054488
:1030400004E030205A46179990476D1C0099481E9D
:1030500000900029F5DC08E0029802995A460078B1
:10306000491C0291179990476D1CBAF10001AAF111
:10307000010AF1DC65E1000009280100303132333A
:1030800034353637383961626364656600000000A4
:10309000303132333435363738394142434445468E
:1030A0000000000000F058F90544761C3078002834
:1030B0007FF4ECAD19B02846BDE8F08F620700D46C
:1030C000062709F1070222F0070CFCE80223E1467B
:1030D00003F000485FEA080C02D00FF2702C0DE0FC
:1030E0005FEA045C02D50FF2682C07E05FEAC47C5B
:1030F00002D00FF2602C01E0AFF2700C4FF0FF38FD
:1031000023F00043CDF850C065280CD006DC4528DC
:1031100009D046281DD047283DD13DE0662818D06B
:1031200067287ED138E00021112F01DB112000E05B
:10313000781CCDE9000106A90EA8FFF7ADFCDDE97A
:103140000F010E9A03910021009207F1010A0491E8
:103150004DE04FF000400097CDE9011006A90EA800
:10316000FFF79AFCDDE90F0203920E9B11990022F2
:10317000DDF80CA00093049211B9791C00EB010A50
:10318000B7EB0A0004D4C0F1FF3007F1010A049044
:10319000AAEB0700019044E0012F00DA012700218B
:1031A000112F01DD112000E03846CDE9000106A90C
:1031B0000EA8FFF771FCDDE90F010E9A03910021C3
:1031C00004910092BA4621070CD40399514500DAC4
:1031D0008A46BAF1010F05DD009AAAF10101515C9E
:1031E000302908D0B84202DA10F1040F06DA0121C2
:1031F000CDE9011015E0AAF10101E9E7002805DC9D
:10320000049901440491AAEB000102E0411C5145DC
:1032100000DD8A460499401A401C01904FF000409E
:103220000290200704D40198504501DBCDF80480BA
:1032300000208DF84F0002980DF14F07B0F1004FBC
:1032400025D02B200E9002984FF0020800280CDAAF
:10325000404202902D200E9007E00A210298FDF7CF
:10326000C5F93031029007F8011DB8F10001A8F14D
:103270000108F2DC02980028EFD1791E0E98087040
:10328000307800F0200040F0450007F8020D12A849
:10329000C01B00F107081498007800B1012000EB72
:1032A0000A01019801EBE07105984144401A401E63
:1032B0000590E00306D45B462146179A059800F076
:1032C0005DF805441498007818B15A46179990474C
:1032D0006D1CE00324D55B462146179A059800F043
:1032E0004DF805441CE00498002807DBDDE90301E4
:1032F000884203DD0098405C179901E0179930205F
:103300005A469047049805F10105401C0490019825
:10331000401E019004D12E205A46179990476D1CEB
:10332000BAF10001AAF1010ADDDC05E017F8010B92
:103330005A46179990476D1CB8F10001A8F1010891
:10334000F4DC5B462146179A0598ABE62D00000099
:103350002B000000200000002DE9F041044600256C
:103360001E461746880404D405E039462020B0479D
:103370006D1C641EF9D52846BDE8F0812DE9F041A9
:10338000044600251E469046C80301D5302700E0BC
:103390002027880404D505E041463846B0476D1C17
:1033A000641EF9D52846BDE8F0810A68531C0B60FD
:1033B000107070470328BCBF0020704707490022E7
:1033C00001EB800151F80C0C41F80C2C002804BFD3
:1033D0004FF0FF307047016849680847A00200209D
:1033E000F0B50E4683B0044632A1FCF7E6FF002894
:1033F0001CBF0025304F06D057F8250048B16D1C82
:10340000102DF9D347E02D490868421C0A6003B02B
:10341000F0BD102D3FD220783A2811D021466846C1
:10342000FFF78EFA6846FFF778FA002833D068462F
:10343000FFF778FA0028684609D0FFF760FA23E022
:103440006A461FA12046FCF7D5FF00981CE0FFF755
:103450004AFA00B316F0020F18BF02241FD000BFB3
:1034600016F00C0F18BF44F4007416F0040F18BFC8
:1034700044F4806406466846FFF760FA0146306807
:10348000224683683046984700281FBF47F825002A
:10349000E81C03B0F0BD4FF0FF3003B0F0BD16F0F4
:1034A000040F18BF0124DBD116F0080F14BF092444
:1034B0000024D5E73A747400A0020020B401002073
:1034C0003A2570000328BCBF00207047064A02EB73
:1034D000800050F80C0C002804BF4FF0FF307047FC
:1034E0000268136900221847A002002070B5144634
:1034F0000E46032813DA1248006820B9032202217D
:10350000104800F0A5FB0025002C06D9715D0D4880
:1035100000F05AFC6D1CAC42F8D820460DE00A4978
:1035200001EB800050F80C0C002804BF4FF0FF3076
:1035300070BD01680B6831469847201A70BD0000C5
:10354000BC010020A8030020A002002070B50D4699
:1035500004461849284600F0DBF92060401C04D1DD
:103560004022154915A000F01DF91249284600F027
:10357000FDF9184825710168002918BF70BD0122A6
:1035800002601548016841F48071016013482168A8
:10359000016000214160816001618161416281625D
:1035A000C1620163C160C0E907124161BDE87040BA
:1035B000FDF79CBD2C3F0008F83F00086F626A2DA4
:1035C0003E61646320213D20284144434E616D6586
:1035D000294E4300B801002044380240E002002098
:1035E00010B5314A84B00168116001210024CDE991
:1035F0000114039490F90400102808BF08202ED06D
:1036000007DC082845D2DFE800F023252729383ACF
:103610003C3E222808BF0C2021D00CDC112808BF1A
:1036200009201CD0202808BF0A2018D0212808BF54
:103630000B2014D02DE0232808BF0D200FD0242804
:1036400008BF0E200BD0252808BF0F2007D020E090
:10365000009405E0009103E0022000E003200090C8
:1036600069461148FDF786FC0F48FDF709FE0A215F
:103670000D48FDF7DCFD60B907E00420EFE7052009
:10368000EDE70620EBE70720E9E70748FDF72AFD0D
:1036900084B200EE104ADFED050A04B0B8EE400A2D
:1036A00020EE200A10BD0000E00200200108803951
:1036B0000FB4044810B503AA0299FFF787F9012057
:1036C00000F002F81404002004460548FFF7BDF995
:1036D0000448FFF7BAF9002C18BF00F08BF8FEE79A
:1036E000000400201404002010B5002821D0114B44
:1036F0000022001F196803E0814203D80A46496886
:103700000029F9D152B11368841A9C4204D100688F
:1037100018441060104602E0506000E0186039B1B3
:1037200002680B1A934203D10B681A44026049687D
:10373000416010BDD8010020F0B50B30154D20F0D0
:1037400007010024144A0FE003688B420BD38B421D
:1037500005D95E1A43184768C3E9006700E043686B
:10376000136002C004E0021D10680028ECD120465E
:10377000002802D1286808B10020F0BD064A074899
:103780001060074A121A22F00702C0E90024012043
:103790002860D7E7DC010020D80100202C0400209D
:1037A0002808002008B500920B46024603A11048E5
:1037B000FFF7EAF8BDE8084000F01CB86D626564E8
:1037C000206173736572746174696F6E20666169DC
:1037D0006C65643A2025732C2066696C653A202557
:1037E000732C206C696E65202564200A000000009F
:1037F0001404002072B6962000F07AFB962000F0A8
:1038000077FBF8E7704710B5FEF7FCFCBDE8104009
:10381000FDF7A6BEF0B5054685B00C46401C04D1A8
:103820005622104910A0FFF7BDFF04F00F07C4F3A4
:103830000216C5F30310C4F3C31405F00F05FEF719
:10384000A7FC0121A94000910C4951F82710CDE9AE
:1038500001160321CDE903146946FDF74FFD05B0BC
:10386000F0BD00000043000870696E20213D202853
:1038700050696E4E616D65294E430000AC420008F0
:1038800070B505460C46401C04D17A220C490DA0A7
:10389000FFF788FFC5F3031005F00F05FEF778FC6E
:1038A000022C88BF0024C268690003238B409A431E
:1038B000C260C26804FA01F11143C16070BD00002A
:1038C0000043000870696E20213D202850696E4E2B
:1038D000616D65294E430000884208BF7047421C55
:1038E00004BF0846704710B5491C08BF10BD03A0AF
:1038F000FFF7DEFE4FF0FF3010BD000070696E6D07
:103900006170206D69732D6D617463680000000043
:1039100010B5421C04BF4FF0FF3010BD91F90020DC
:10392000521C0BD091F90020824203D14C68601CDC
:1039300009D105E011F90C2F521CF3D14FF0FF34DF
:1039400002A0FFF7B5FE204610BD000070696E6D45
:103950006170206E6F7420666F756E6420666F7282
:10396000207065726970686572616C0010B50446FC
:10397000401C08BF10BD91F90000401C12D000BFD0
:1039800091F90000A04209D189682046FFF742FF63
:103990002046BDE810400021FFF772BF11F90C0F5F
:1039A000401CEDD1BDE8104001A0FFF781BE000032
:1039B000636F756C64206E6F742070696E6F7574C0
:1039C0000000000070B50D4604462F492846FFF759
:1039D0009FFF2060401C04BF2CA0FFF769FE344805
:1039E0002168A1F18042B2F5803203D1016841F033
:1039F0000101016021682F4AB1F1804F03D11168A4
:103A000041F0010111602168A1F18043B3F58063A9
:103A100003D1116841F0020111602168A1F18043D6
:103A2000B3F5006303D1116841F00401116021680E
:103A3000A1F18042B2F5A03203D1016841F4803196
:103A400001602168A1F18042B2F5A23203D1016880
:103A500041F4003101602168A1F18042B2F5A43245
:103A600003D1016841F48021016007492846FFF72E
:103A70007DFF25710020A060E0602046BDE8704019
:103A800044F6206100F024B85840000850574D20FB
:103A90006572726F723A2070696E6F7574206D6115
:103AA0007070696E67206661696C65642E00000045
:103AB0004438024040380240DFED040A20EE200A7C
:103AC000BDEEC00A10EE101A00F002B800247449CE
:103AD00070B5244C05462DED028B0E460068206023
:103AE0009FED218AA96881B195ED030AF8EE400A9D
:103AF00000EE101AB8EE400A80EE808A18EE101A16
:103B0000B1F17E5FC8BF9FED198A016A41F21112BF
:103B1000114207D1016A9210114203D1016821F0CC
:103B200001010160FEF76EFB701EE0601048114954
:103B30000068B0FBF1F080B2401E606000202061A0
:103B4000A0600848FEF74AFAB0EE480A284600F09E
:103B500013F8AE602068016841F001010160BDEC1E
:103B6000028B70BD24030020000000000000803F95
:103B7000B001002040420F0010B5B5EEC00A00248D
:103B8000304AF1EE10FA88B00168116038BF9FED3D
:103B90002E0A06D310EE101AB1F17E5FC8BF9FED5A
:103BA0002B0AD0ED020A6021F8EE600A20EE800AAE
:103BB000BCEEC00A80ED030A0091C16801910021AA
:103BC0000291039104910591069190F904002A282D
:103BD00024BF08B010BDDFE800F0152B2F331E15F1
:103BE0001520152B2F331E1E1E152D311E2B152BA8
:103BF000152B2F332F1E1E202D311E1E1E1E1E1E86
:103C0000152B2F33224669460E48FEF7DDF8214674
:103C10000C48FEF7FDF908B010BD22466946094878
:103C2000FEF7D2F821460748FEF782F808B010BD2B
:103C30000424E7E70424F0E70824E3E70824ECE79A
:103C40000C24DFE724030020000000000000803F78
:103C50002DE9F04789460446164645494846FFF790
:103C600057FE054643493046FFF752FE01462846B7
:103C7000FFF732FE2060401C04D15F223E493FA086
:103C8000FFF790FD216800254348A1F18042B2F57D
:103C9000883204D1016841F01001016065603F4F36
:103CA00021684FF00108B94206D13D490A6842F443
:103CB00000320A60C4F804802168A1F18042B2F5A4
:103CC0008A3205D1016841F0200101600220606064
:103CD00027494846FFF74AFE26493046FFF746FE89
:103CE00001214846FFF7CCFD01213046FFF7C8FD12
:103CF0004FF41650C4E902052561656184F81890F7
:103D00002848667621680160A1684160E1688160A9
:103D10002169C16061698561016194F91910491CCB
:103D200004BF0821416106D094F91810491C0CBF4A
:103D300004210C2141611B48FEF785F92068B84237
:103D400018BFBDE8F08718481849C0F80080D4E9CA
:103D50000130D4E90456D4F80CC02268A4698A64FE
:103D6000C1E91330C1E91764C1E915C5BDE8F087A1
:103D7000C041000808420008504200086F626A2DE6
:103D80003E7561727420213D2028554152544E6188
:103D90006D65294E43000000443802400044004055
:103DA000403802406C030020BC010020600300206A
:103DB000034B59604068034941F8202070470000D8
:103DC000BC01002060030020074AD0F800C003684F
:103DD00013601B68C3F3C013002BF8D0C1F30800B5
:103DE000CCF80400704700006C03002070B5134C41
:103DF0002068C16811F0020F05D0016921F00201AD
:103E0000016100F033F82068C16811F0040F08BFA9
:103E100070BD016921F0040101612068456A084E06
:103E20003068281AB0F57A7F38BF70BDFDF790FB77
:103E3000216805F57A708863356070BD64020020E2
:103E4000A801002003480068016921F00201016116
:103E500070470000C403002003480068C16821F0D7
:103E60000201C16070470000C403002010B5FFF7D5
:103E7000E9FF0D4C206870B100F018F821680A685D
:103E8000101A00280BDC886820606268002A1CBFBA
:103E900048689047EEE7BDE81040FFF7DDBF0868CF
:103EA000BDE8104000F01AB8C4010020074810B562
:103EB000016839B901210160064905480860002000
:103EC000FDF768FB0448006810BD0000CC0100202D
:103ED000000C0040C4030020240C00400349096882
:103EE0004863C86840F00200C8607047C4030020FF
:103EF00070B54FF47A7100FB01F5FFF7D7FF044668
:103F0000FFF7D4FF001BA842FAD370BD00000000E9
:103F1000010203040102030406070809000000006F
:103F20000000000001020304060708090000000069
:103F300000200140050000000100000000200140B9
:103F40000500000002000000002001400500000004
:103F500003000000002001400500000004000000F4
:103F60000020014005000000050000000020014085
:103F700005000000060000000020014005000000D0
:103F800007000000002001400500000010000000B4
:103F90000020014005000000110000000020014049
:103FA0000500000020000000002001400500000086
:103FB0002100000000200140050000002200000058
:103FC0000020014005000000230000000020014007
:103FD0000500000024000000002001400500000052
:103FE000250000000020014005000000FF00000047
:103FF000FFFFFFFF00000000433A5C776F726B5CCD
:104000006D6265645C6769746875625C6C69627234
:1040100061726965735C6D6265645C746172676529
:1040200074735C68616C5C5441524745545F5354EF
:104030004D5C5441524745545F4E55434C454F5F8C
:104040004634303152455C616E616C6F67696E5FFA
:104050006170692E63000000000000000000004055
:1040600093000000010000000000004093000000E9
:104070000200000000000040930000000300000068
:104080000000004093000000050000000000004018
:10409000930000000600000000040040130100002F
:1040A000070000000000014093000000080000002D
:1040B00000000140930000000900000000000140E2
:1040C000930000000A00000000000140930000007F
:1040D0000B00000000000140930000000F000000F2
:1040E00000000040930000001000000000000140AC
:1040F0009300000011000000000001409300000048
:1041000013000000000000409300000014000000B5
:1041100000040040130100001500000000040040EE
:104120001301000016000000000800401301000009
:1041300017000000000800401301000018000000F4
:1041400000080040130100001900000000080040B2
:10415000130100001A00000000000040930000005E
:104160001D00000000000140930000001E00000040
:1041700000000140930000001F000000000001400B
:10418000930000002600000000040040130100001E
:104190002700000000040040130100002800000078
:1041A000000400401301000029000000000400404A
:1041B00013010000FF000000FFFFFFFF00000000F0
:1041C00002000000004400409303000009000000CA
:1041D00000100140930300000B0000000014014098
:1041E00013040000160000000010014093030000BB
:1041F000260000000014014013040000FF0000002E
:10420000FFFFFFFF0000000003000000004400402B
:10421000930300000A000000001001409303000017
:104220000C000000001401401304000017000000FF
:10423000001001409303000027000000001401401B
:1042400013040000FF000000FFFFFFFF000000005C
:10425000433A5C776F726B5C6D6265645C6769742E
:104260006875625C6C69627261726965735C6D62CB
:1042700065645C746172676574735C68616C5C54DE
:1042800041524745545F53544D5C54415247455445
:104290005F4E55434C454F5F4634303152455C7359
:1042A000657269616C5F6170692E630000000000D7
:1042B00001000000110000000200000012000000D8
:1042C0000300000000001110000021100000311058
:1042D00000001210000022100000321050696E6DB4
:1042E0006170206572726F723A2077726F6E67200C
:1042F000706F7274206E756D6265722E0000000022
:10430000433A5C776F726B5C6D6265645C6769747D
:104310006875625C6C69627261726965735C6D621A
:1043200065645C746172676574735C68616C5C542D
:1043300041524745545F53544D5C54415247455494
:104340005F4E55434C454F5F4634303152455C70AB
:10435000696E6D61702E6300DDDDDDDDDCBBBBDD14
:10436000DDDDDDDDDDDDDDDD988888888888888815
:104370007777777777888888855555566666666635
:104380006666666666688888833333322222222214
:10439000222222222228888D000000000000000036
:1043A000092A0008092A0008092A0008092A000821
:1043B000092A0008092A0008000000003526000824
:1043C00000000000000000000000000000000000ED
:1043D0000000000000000000000000003927000875
:1043E000000000000000000000000000A4FFFFFF2C
:1043F000000000004D2700084527000800000000CD
:104400000000000049270008000000000000000034
:1044100000000000000000008129000800000000EA
:10442000A0FFFFFF000000000000000000000000EF
:1044300000000000000000004D270008452700088C
:1044400000000000000000004927000800000000F4
:1044500000000000D927000800000000092A000819
:10446000092A0008FCFFFFFF000000000000000018
:104470000000000000000000000000007928000893
:10448000000000000000000000000000092A0008F1
:10449000092A0008092A0008092A0008092A000830
:1044A000092A000800000000D528000800000000CC
:1044B000FCFFFFFF00000000000000000000000003
:1044C000E4440008940100204C0000000E2A00087B
:1044D00030450008E0010020480600001E2A0008C0
:1044E00087BDFFFF0000000000000000000000008A
:1044F00000000000000000000000000000000000BC
:1045000000BD0105000000000000000000000000E8
:10451000000000000000000000000000000000009B
:10452000000000000000000000000000000000008B
:040000050800019559
:00000001FF
